:020000040800F2
:1000000000200020CD240008252400082724000813
:1000100000000000000000000000000000000000E0
:10002000000000000000000000000000292400087B
:1000300000000000000000002B2400082D24000810
:100040001D2500081D2500081D2500081D25000888
:100050001D2500081D2500081D2500081D25000878
:10006000000000001D2500081D2500081D250008B2
:100070001D2500081D250008000000001D250008A2
:10008000000000001D250008000000000000000026
:100090001D250008000000001D2500081D25000882
:1000A0001D2500081D2500081D2500081D25000828
:1000B0001D2500081D2500080000000000000000AC
:1000C00010B5064C2378002B07D1054B002B02D02E
:1000D000044800E000BF0123237010BD6800002029
:1000E000000000007C260008044B10B5002B03D054
:1000F0000349044800E000BF10BDC04600000000F6
:100100006C0000207C260008002243088B4274D338
:1001100003098B425FD3030A8B4244D3030B8B4208
:1001200028D3030C8B420DD3FF22090212BA030C11
:100130008B4202D31212090265D0030B8B4219D3F2
:1001400000E0090AC30B8B4201D3CB03C01A524112
:10015000830B8B4201D38B03C01A5241430B8B425A
:1001600001D34B03C01A5241030B8B4201D30B0343
:10017000C01A5241C30A8B4201D3CB02C01A52416A
:10018000830A8B4201D38B02C01A5241430A8B422D
:1001900001D34B02C01A5241030A8B4201D30B0216
:1001A000C01A5241CDD2C3098B4201D3CB01C01A30
:1001B000524183098B4201D38B01C01A524143093A
:1001C0008B4201D34B01C01A524103098B4201D328
:1001D0000B01C01A5241C3088B4201D3CB00C01A95
:1001E000524183088B4201D38B00C01A524143080D
:1001F0008B4201D34B00C01A5241411A00D2014632
:10020000524110467047FFE701B5002000F006F8A4
:1002100002BDC0460029F7D076E770477047C04658
:1002200010B50400094B1868FA218900FFF76CFF2C
:1002300000F060F8002801D0012010BD013000223C
:100240002100404200F026F80020F6E700000020E0
:1002500010B5084A136840210B4313600020FFF7D4
:10026000DFFF041E02D00124200010BD02F09AF826
:10027000FAE7C04600200240024A136801331360C7
:100280007047C04694000020014B18687047C04674
:100290009400002070B5002811DB8408134DC03491
:1002A000A400625903231840C000FC331E0086409E
:1002B000B24389010B4083401343635170BDC0B208
:1002C0000F220240083A920806329200084BD318D7
:1002D0005D6803242040C000FF2214008440A54331
:1002E00089010A4082402A435A60E7E700E100E0C2
:1002F00000ED00E001380A4B98420FD8094A5060DF
:100300000948036A1B021B0AC02109060B4303624A
:100310000023936007331360002070470120FCE73F
:10032000FFFFFF0010E000E000ED00E0F0B5C64682
:1003300000B5002338E0052600E00026AE40350079
:100340003D430234A400554EA551554C2568424604
:10035000D4432E0026404A68D20302D542461543B4
:100360002E004F4D2E606D682E0026404A68920385
:1003700002D5424615432E00494D6E60AD682E00F1
:1003800026404A68D20202D5424615432E00444D0B
:10039000AE60ED682C404A68920202D542462A437C
:1003A00014003F4AD46001330A681400DC4072D064
:1003B00001249C4022409046F5D04D68022D01D08A
:1003C000122D0ED1DD080835AD002F5807261E402E
:1003D000B6000F22B24097430A69B24016003E436E
:1003E0002E504D686E1E012E03D9112D01D0122DF5
:1003F00012D185685F000326BE40B5432E00CD684C
:10040000BD40354385604568A5434A681609012407
:1004100034409C402C43446007685E000324250060
:10042000B540ED432F404A681440B4403C4304605B
:10043000C46825408C68B4402C43C4604A68D2002C
:10044000B1D5184D6C6B012634436C639C08A51C18
:10045000AD00124EAF5903261E40B5000F26AE4028
:10046000B743A026F605B04200D166E70E4EB04273
:100470000BD00E4EB0420AD00D4EB04209D00D4EF8
:10048000B04200D157E7062658E7012656E7022674
:1004900054E7032652E704BC9046F0BD000001403B
:1004A0000004014000100240000400500008005009
:1004B000000C0050001C005003690B4201D10020C9
:1004C00070470120FCE7002A01D1816270478161F9
:1004D000FCE703689A69920701D500229A620368D3
:1004E0009A69D20703D49A6901210A439A61704735
:1004F000F0B5059C05686868660D8027FF003740E9
:10050000054E3E43B0438905890D120411430B4348
:10051000234303436B60F0BDFF63FF0370B504002A
:100520000E00150003689B69DB0619D523689A69DC
:10053000920617D4731CF9D0FFF7A6FE401BB042F9
:1005400001D8002EF2D1636C20221343636441234F
:10055000E25400232232A354023AA35401201AE0A9
:10056000002018E01022DA6123682025DD612000D8
:10057000FFF7AFFF2268536807490B405360636C75
:100580000422134363644123E55400233E32A35401
:10059000023AA354012070BD00E800FE70B50400CB
:1005A0000D00160023689B699B071CD432002900AC
:1005B0002000FFF7B3FF002817D16B1CF2D0FFF724
:1005C00063FE801BA84201D8002DEBD1636C202272
:1005D000134363644123E25400232232A354023ABA
:1005E000A354012000E0002070BD0120FCE7F8B515
:1005F00006000C0017001D0033689B6923401B1B7D
:100600005A425341BB4216D16B1CF5D0FFF73CFE5A
:10061000069BC01AA84201D8002DEDD1736C202290
:10062000134373644123F25400232232B354023A39
:10063000B354012000E00020F8BD70B505000C00A7
:1006400016002B689B699B061AD4320021002800F3
:10065000FFF764FF002815D1FFF716FE801BA042AC
:1006600001D8002CEDD16B6C202213436B64412325
:10067000EA5400232232AB54023AAB54012070BD3D
:100680000020FCE70120FAE710B5041E59D04123F1
:10069000C35C002B43D041232422E2542268136818
:1006A00001218B4313602268274B61680B40136163
:1006B0002268936825490B409360E368012B34D08E
:1006C000226884231B02A1680B439360E368022B1A
:1006D00032D0226851681E4B0B4353602268D368A6
:1006E0001A490B40D360236962691343A26912025D
:1006F00021681343CB602268E369216A0B431360CE
:100700002268136801210B431360002363644122B4
:100710001F31A15423630132A354002010BD403384
:100720000022C25401F04CFEB5E7226880231B0270
:10073000A1680B439360C9E72368802212015A60C5
:10074000C7E70120EAE7C046FFFFFFF0FF7FFFFF9A
:1007500000800002F0B585B00500039117001E006F
:100760004123C35C202B00D099E02033C35C012BD4
:1007700000D197E040230122C254FFF785FD040019
:10078000802100901923012209022800FFF72FFF82
:10079000002800D088E041232122EA540133113A95
:1007A000EA5400236B646F626E856B636B8D9BB242
:1007B000FF2B0BD9FF232B857F3B3F4A00925B0425
:1007C000FF2203992800FFF793FE18E06A8D92B28A
:1007D0002A858023D2B2384900919B0403992800CE
:1007E000FFF786FE0BE06A8D92B22A858023D2B293
:1007F000002100919B0403992800FFF779FE6B8D7F
:100800009BB2002B34D022000A992800FFF7C6FEC5
:1008100000284BD12B686A6A12789A626B6A01339E
:100820006B626B8D013B9BB26B852B8D013B9BB249
:100830002B856A8D92B2002AE1D0002BDFD1009483
:100840000A9B002280212800FFF7D1FE00282FD12B
:100850006B8D9BB2FF2BC6D9FF232B857F3B0022DC
:1008600000925B04FF3203992800FFF741FEC6E7C0
:1008700022000A992800FFF7E0FE00281AD12B6811
:100880002022DA6129684B680C4C23404B604123DD
:10089000EA5400232232AB54023AAB5400E0022067
:1008A00005B0F0BD0220FBE70120F9E70120F7E7E2
:1008B0000120F5E70120F3E70020008000E800FEBA
:1008C000F0B54123C35C202B20D12033C35C012B26
:1008D0001ED0402401220255412524234355066899
:1008E000336893433360066833680A4F3B40336094
:1008F000066833681943316001680B6813430B6065
:100900002023435500230355002000E00220F0BDC2
:100910000220FCE7FFEFFFFFF0B54123C35C202B73
:100920001ED12033C35C012B1CD040240122025570
:100930004125242343550668336893433360066892
:100940003368094F3B4009021943316001680B6865
:1009500013430B602023435500230355002000E080
:100960000220F0BD0220FCE7FFF0FFFF10B5264B90
:10097000D9680C230B40082B42D00C2B11D0042B30
:1009800009D0214B5A68520B0723134001338020B2
:100990000002984010BD1C4B1B68DB0632D51B487B
:1009A000F8E78A0C0F231340194AD05C890D032203
:1009B00011400131144BDB68DB030DD4124B1B6873
:1009C000DB0613D54201121A93019B1ADB001B1898
:1009D0001802FFF799FBDDE74201121A93019B1AF7
:1009E000DB001B185802FFF78FFBD3E74201121AF6
:1009F00093019B1ADB001B189802FFF785FBC9E7E0
:100A00000448C7E70448C5E70010024000093D005C
:100A1000F027000800127A000024F400F0B583B03B
:100A2000041E00D15DE2CA4BDA680C251540DA6875
:100A30008026760216400368DB0736D5082D2CD0B9
:100A40000C2D28D063688022520293424DD0A02200
:100A5000D202934250D0BE4B1A68BE490A401A6077
:100A60001A68802149020A400192019A1A68BA491B
:100A70000A401A606368002B4AD0FFF705FC0700A4
:100A8000B34B1B689B0310D4FFF7FEFBC01B64280D
:100A9000F6D9032026E2002ED4D0AD4B1B689B0371
:100AA00003D56368002B00D11EE223689B0764D541
:100AB000E368042D3CD00C2D38D0002B00D1AEE0E3
:100AC000A3490A680920824313430B60FFF7DCFB4C
:100AD00006009F4B1B685B0700D597E0FFF7D4FB30
:100AE000801B0228F5D90320FCE1994A1168802374
:100AF0005B020B431360BDE7954B19688022D2025D
:100B00000A431A601968802252020A431A60B1E748
:100B1000FFF7BAFB07008E4B1B689B03C5D5FFF799
:100B2000B3FBC01B6428F6D90320DBE1002EC4D13F
:100B3000874A1268520702D5002B00D1D6E1844EB5
:100B4000726886490A40216909020A437260326864
:100B500009218A4313433360FFF708FFF268120943
:100B60000F2313407E4AD35CD8407E4B1860002090
:100B7000FFF756FB002800D0B4E12368DB062CD534
:100B8000002D5FD1724B1B689B0503D5A369002B19
:100B900000D1ADE16E4A536873490B40216A0B43A3
:100BA000536053681B021B0AE16909060B4353603B
:100BB000236A590B013180231B028B40D16809093C
:100BC0000F220A4066498A5CD340664A13600020BF
:100BD000FFF726FB002800D084E123681B077DD5A2
:100BE0006369002B67D05A4A136D01210B431365CB
:100BF000FFF74AFB0600564B1B6D9B076ED4FFF7B1
:100C000043FB801B0228F6D903206BE150494B6857
:100C1000524A13402269120213434B60ADE74C4A1B
:100C2000136801218B431360FFF72EFB0600484B2E
:100C30001B685B07A1D5FFF727FB801B0228F6D9AD
:100C400003204FE1A369002B22D0414A1168802381
:100C50005B000B431360FFF717FB06003C4B1B6860
:100C60009B0506D4FFF710FB801B0228F6D9032052
:100C700038E1374A53683C490B40216A0B435360C3
:100C800053681B021B0AE16909060B435360A4E782
:100C90002F4A136835490B401360FFF7F5FA060039
:100CA0002B4B1B689B0598D5FFF7EEFA801B02289B
:100CB000F6D9032016E1264A136D01218B431365F3
:100CC000FFF7E2FA0600224B1B6D9B0706D5FFF7E4
:100CD000DBFA801B0228F6D9032003E123685B07B7
:100CE00000D48CE01A4B9B6BDB001BD4184A916B31
:100CF00080235B050B43936301261D4B1B68DB05BB
:100D000012D5A36880225200934235D0002B4BD1DC
:100D10000F4B1A6D15490A401A651A6D15490A409C
:100D20001A652FE00026E8E7114A116880235B006E
:100D30000B431360FFF7A8FA07000D4B1B68DB0598
:100D4000DFD4FFF7A1FAC01B6428F6D90320C9E05D
:100D500000100240FFFFFEFFFFFFFBFFFFE0FFFF71
:100D6000FC27000800000020FF1FFFFFFFFEFFFF21
:100D700000700040FFFBFFFF614A116D80235B00A4
:100D80000B431365A368002B28D0FFF77DFA0700FB
:100D90005B4B1B6D9B0530D4FFF776FAC01B594B9C
:100DA0009842F5D903209DE0A022D200934209D0B9
:100DB000534B1A6D54490A401A651A6D53490A403B
:100DC0001A65DFE74E4B196D013AFF3A0A431A657F
:100DD000196D802252000A431A65D3E7FFF754FACF
:100DE0000700474B1B6D9B0507D5FFF74DFAC01B4E
:100DF000444B9842F5D9032074E0012E1AD0636A5F
:100E0000002B00D176E00C2D4FD0022B18D03C4A9D
:100E100013683F490B401360FFF736FA0400384B64
:100E20001B689B013FD5FFF72FFA001B0228F6D95C
:100E3000032057E0324A936B36490B409363DEE759
:100E40002F4A136832490B401360FFF71DFA050063
:100E50002B4B1B689B0106D5FFF716FA401B022897
:100E6000F6D903203EE02649CB682B4A1340A26AFC
:100E7000E06A0243206B02431343CB600A6880237D
:100E80005B0413430B60FFF7FFF904001C4B1B6866
:100E90009B0106D4FFF7F8F9001B0228F6D90320BE
:100EA00020E000201EE000201CE0012B24D0144B89
:100EB000DA6880235B021340A16A8B4201D00120D3
:100EC00010E0F0239B031340E16A8B4201D0012024
:100ED00008E0C0231B041A40236B9A420ED0012065
:100EE00000E0012003B0F0BD0120FBE70120F9E79D
:100EF0000120F7E70020F5E70120F3E70020F1E704
:100F00000010024088130000FFFEFFFFFFFBFFFF01
:100F1000FFFFFFFEFFFFFFEFFFFF02FF70B50400C2
:100F20000D00002800D1BAE05F4B1A68012313407E
:100F30008B420BD25C490B68012293432B430B601D
:100F40000B681A40AA4201D00120A9E023689B0740
:100F500006D5564AD368F0218B43A1680B43D36072
:100F60002368DB0764D56368022B09D0032B29D0E3
:100F7000012B2DD04D4A1268920506D401208FE036
:100F80004A4A1268920300D48BE04849CA68032099
:100F900082431343CB60FFF777F906006368022BA7
:100FA0001CD0032B28D0012B34D0404BDB680C2203
:100FB0001A423DD0FFF768F9801B3D4B9842F4D9A7
:100FC00003206DE0394A12689201DED4012067E007
:100FD000364A12685207D8D4012061E0334BDA68F0
:100FE0000C231340082B23D0FFF74EF9801B304B06
:100FF0009842F3D9032053E02C4BDA680C231340BA
:101000000C2B15D0FFF740F9801B294B9842F3D9E0
:10101000032045E0254BDA680C231340042B07D04E
:10102000FFF732F9801B224B9842F3D9032037E0B7
:101030001D4B1A6801231340AB420BD91A490B68A8
:10104000012293432B430B600B681A40AA4201D044
:10105000012025E023685B0706D5144AD3681549AB
:101060000B40E1680B43D36023681B0707D50F498A
:10107000CB68114A13402269D2001343CB60FFF7BB
:1010800075FC0A4BDA6812090F2313400B4AD35C34
:10109000D8400B4B18600020FFF7C2F800E0012099
:1010A00070BD0120FCE7C046002002400010024055
:1010B00088130000FFF8FFFFFFC7FFFFFC270008B1
:1010C0000000002070B5040003689B064DD5604BFE
:1010D0009B6BDB0000D57CE05D4A916B80235B0558
:1010E0000B43936301255B4B1B68DB0500D472E067
:1010F000574B1968C0239B031940626813408B4209
:1011000006D0C0239B0211001940994200D177E01C
:101110004F4B1B6DC02189020B4015D00A409A42EB
:1011200012D023689B060FD5494B186D4A4A0240DE
:101130001E6D8021090331431965196D474E3140F9
:1011400019651A65C30562D46368C022920219004A
:10115000114091426AD03E490B6DC02292026068F4
:10116000024013430B65012D6AD02368DB0706D5C7
:10117000374AD36C03218B43A1680B43D3642368A4
:101180009B0706D5324AD36C0C218B43E1680B4395
:10119000D36423685B0706D52D4AD36C30490B40D6
:1011A00021690B43D36423681B0706D5284AD36CF7
:1011B0002C490B4061690B43D36423681B0645D55A
:1011C000234AD36C28490B40A1690B43D364002008
:1011D00070BD002587E71F4A116880235B000B4321
:1011E0001360FFF751F806001A4B1B68DB0500D5AA
:1011F0007EE7FFF749F8801B6428F5D90320E7E76D
:10120000134B1B689B0300D482E70120E0E7FFF744
:101210003BF806000E4B1B6D9B0595D4FFF734F889
:10122000801B124B9842F5D90320D1E708490A6880
:101230000F480240C0208003034013430B608AE73D
:101240000A008B6B0B490B4093638EE70020BFE7CE
:101250000010024000700040FFFFFCFFFFFFF7FF9F
:10126000FFF3FFFFFFCFFFFFFFFFF3FF8813000037
:10127000FFFFCFFFFFFFFFEF00B583B002000123A8
:101280005B4200930233A0210248FFF763FA03B0E8
:1012900000BDC04698000020F0B5D6464F464646F1
:1012A000C0B507000C001600984603691A68002AAA
:1012B00005D0DB6A002B1AD10133994601E00123E6
:1012C00099463B685B699A461D006B425D41EDB2F1
:1012D0004B461D430ED0802101224901BF48FFF734
:1012E000F2F8052C13D8A300BD4AD3589F4600231B
:1012F0009946E6E7802100224901B848FFF7E3F864
:10130000EFE70E2E1AD00F2E30D0002E04D01CBCCA
:1013100090469946A246F0BDA4003C19B600236849
:101320009B595A42534142461A4203D123684246CE
:101330009A51ECE7E020FFF79FFFF7E7A4003C1984
:10134000B60023689B595A42534142461A4205D07F
:101350004B46002B06D0A348FFF78EFF236842467A
:101360009A51D4E7A048FFF787FFF7E7A4003C199C
:10137000B60023689B595A42534142461A4203D150
:10138000236842469A51C2E7E120FFF775FFF7E76D
:101390000D2EBCD8B300954AD3589F46A4003C19E3
:1013A000B60023689B595A42534142461A4205D01F
:1013B0004B46002B06D08E48FFF75EFF236842465F
:1013C0009A51A4E78B48FFF757FFF7E7A4003C19B1
:1013D000B60023689B595A42534142461A4205D0EF
:1013E0004B46002B06D08448FFF746FF2368424651
:1013F0009A518CE78148FFF73FFFF7E7A4003C19BB
:10140000B60023689B595A42534142461A4205D0BE
:101410004B46002B06D07A48FFF72EFF2368424642
:101420009A5174E77748FFF727FFF7E7A4003C19C4
:10143000B60023689B595A42534142461A4205D08E
:101440004B46002B06D07048FFF716FF2368424634
:101450009A515CE76D48FFF70FFFF7E7A4003C19CE
:10146000B60023689B595A42534142461A4205D05E
:101470004B46002B06D06648FFF7FEFE2368424627
:101480009A5144E76348FFF7F7FEF7E7A4003C19D9
:10149000B60023689B595A42534142461A4205D02E
:1014A0004B46002B06D05C48FFF7E6FE2368424619
:1014B0009A512CE75948FFF7DFFEF7E7A4003C19E3
:1014C000B60023689B595A42534142461A4205D0FE
:1014D0004B46002B06D05248FFF7CEFE236842460B
:1014E0009A5114E74F48FFF7C7FEF7E7A4003C19ED
:1014F000B60023689B595A42534142461A4205D0CE
:101500004B46002B06D04848FFF7B6FE23684246FC
:101510009A51FCE64548FFF7AFFEF7E7A4003C19F7
:10152000B60023689B595A42534142461A4205D09D
:101530004B46002B06D03E48FFF79EFE23684246EE
:101540009A51E4E63B48FFF797FEF7E7A4003C1901
:10155000B60023689B595A42534142461A4205D06D
:101560004B46002B06D03448FFF786FE23684246E0
:101570009A51CCE63148FFF77FFEF7E7A4003C190B
:10158000B60023689B595A42534142461A4205D03D
:101590004B46002B06D02A48FFF76EFE23684246D2
:1015A0009A51B4E62748FFF767FEF7E7A4003C1915
:1015B000B60023689B595A42534142461A4205D00D
:1015C0004B46002B06D02048FFF756FE23684246C4
:1015D0009A519CE61D48FFF74FFEF7E700040050C4
:1015E000942600081428000818280008AC260008D3
:1015F0001C280008202800082428000828280008A3
:101600002C28000830280008342800083828000852
:101610003C28000840280008442800084828000802
:101620004C280008502800085428000858280008B2
:101630005C28000860280008642800086828000862
:101640006C28000870280008742800087828000812
:10165000A4003C19B60023689B595A4253414246A4
:101660001A4205D04B46002B06D0CA48FFF704FEAD
:10167000236842469A514AE6C748FFF7FDFDF7E75F
:10168000A4003C19B60023689B595A425341424674
:101690001A4203D1236842469A5138E6E220FFF706
:1016A000EBFDF7E70E2E00D931E6B300BB4AD35865
:1016B0009F46A4003C19B60023689B595A425341E7
:1016C00042461A4203D1236842469A511FE6E3205C
:1016D000FFF7D2FDF7E7A4003C19B60023689B5939
:1016E0005A42534142461A4204D0002D06D0AC481B
:1016F000FFF7C2FD236842469A5108E6A948FFF762
:10170000BBFDF7E7A4003C19B60023689B595A4279
:10171000534142461A4204D0002D06D0A248FFF79A
:10172000ABFD236842469A51F1E5A048FFF7A4FDBE
:10173000F7E7A4003C19B60023689B595A4253416D
:1017400042461A4204D0002D06D09948FFF794FD76
:10175000236842469A51DAE59648FFF78DFDF7E790
:10176000A4003C19B60023689B595A425341424693
:101770001A4204D0002D06D08F48FFF77DFD236864
:1017800042469A51C3E58D48FFF776FDF7E7A4007E
:101790003C19B60023689B595A42534142461A42AB
:1017A00004D0002D06D08648FFF766FD2368424628
:1017B0009A51ACE58348FFF75FFDF7E7A4003C19B9
:1017C000B60023689B595A42534142461A4204D0FC
:1017D000002D06D07C48FFF74FFD236842469A5102
:1017E00095E57A48FFF748FDF7E7A4003C19B600F5
:1017F00023689B595A42534142461A4204D0002D55
:1018000006D07348FFF738FD236842469A517EE5BB
:101810007048FFF731FDF7E7A4003C19B6002368D4
:101820009B595A42534142461A4204D0002D06D0D9
:101830006948FFF721FD236842469A5167E56748EA
:10184000FFF71AFDF7E7A4003C19B60023689B597F
:101850005A42534142461A4204D0002D06D06048F5
:10186000FFF70AFD236842469A5150E55D48FFF7AD
:1018700003FDF7E7A4003C19B60023689B595A42C0
:10188000534142461A4204D0002D06D05648FFF775
:10189000F3FC236842469A5139E55448FFF7ECFCC3
:1018A000F7E7A4003C19B60023689B595A425341FC
:1018B00042461A4205D04B46002B06D04C48FFF753
:1018C000DBFC236842469A5121E54A48FFF7D4FCE5
:1018D000F7E7A4003C19B60023689B595A425341CC
:1018E00042461A4205D04B46002B06D04248FFF72D
:1018F000C3FC236842469A5109E54048FFF7BCFC07
:10190000F7E7A4003C19B60023689B595A4253419B
:1019100042461A4205D04B46002B06D03848FFF706
:10192000ABFC236842469A51F1E43548FFF7A4FC2A
:10193000F7E70D2E00D9EAE4B300324AD3589F46A8
:10194000A4003C19B60023689B595A4253414246B1
:101950001A4204D03A68012351694B40536123680D
:1019600042469A51D3E4A4003C19B60023689B591F
:101970005A42534142461A4204D0002D06D0224812
:10198000FFF77AFC236842469A51C0E41F48FFF7EC
:1019900073FCF7E77C28000878280008E426000894
:1019A0008028000884280008882800088C2800085F
:1019B0009028000894280008982800089C2800080F
:1019C000A0280008A4280008A8280008AC280008BF
:1019D000B0280008B4280008B8280008BC2800086F
:1019E000C0280008C4280008C8280008CC2800081F
:1019F000D0280008D4280008D8280008DC280008CF
:101A0000E028000820270008E4280008E82800084B
:101A1000A4003C19B60023689B595A4253414246E0
:101A20001A4204D0002D06D0C948FFF725FC2368D0
:101A300042469A516BE4C748FFF71EFCF7E7A40043
:101A40003C19B60023689B595A42534142461A42F8
:101A500004D0002D06D0C048FFF70EFC2368424694
:101A60009A5154E4BD48FFF707FCF7E7A4003C197E
:101A7000B60023689B595A42534142461A4204D049
:101A8000002D06D0B648FFF7F7FB236842469A516F
:101A90003DE4B448FFF7F0FBF7E7A4003C19B600BB
:101AA00023689B595A42534142461A4204D0002DA2
:101AB00006D0AD48FFF7E0FB236842469A5126E482
:101AC000AA48FFF7D9FBF7E7A4003C19B600236842
:101AD0009B595A42534142461A4204D0002D07D026
:101AE000A348FFF7C9FB236842469A51FFF70FFC52
:101AF000A048FFF7C1FBF6E7A4003C19B600236835
:101B00009B595A42534142461A4204D0002D07D0F5
:101B10009948FFF7B1FB236842469A51FFF7F7FB5C
:101B20009648FFF7A9FBF6E7A4003C19B600236826
:101B30009B595A42534142461A4204D0002D07D0C5
:101B40008F48FFF799FB236842469A51FFF7DFFB66
:101B50008C48FFF791FBF6E7A4003C19B600236818
:101B60009B595A42534142461A4204D0002D07D095
:101B70008548FFF781FB236842469A51FFF7C7FB70
:101B80008248FFF779FBF6E7A4003C19B60023680A
:101B90009B595A42534142461A4205D05346002BA4
:101BA00007D17B48FFF768FB236842469A51FFF74D
:101BB000AEFB7848FFF760FBF6E7A4003C19B600DF
:101BC00023689B595A42534142461A4204D0002D81
:101BD00007D07148FFF750FB236842469A51FFF740
:101BE00096FB6E48FFF748FBF6E7A4003C19B600E9
:101BF00023689B595A42534142461A4204D12368F2
:101C000042469A51FFF783FBE420FFF735FBF6E7E6
:101C10000B2E01D9FFF77BFBB300614AD3589F46D7
:101C2000A400E359B60042469A51FFF770FBA400A6
:101C30003C19B60023689B595A42534142461A4206
:101C400004D0002D07D05748FFF716FB2368424603
:101C50009A51FFF75CFB5448FFF70EFBF6E7A40030
:101C60003C19B60023689B595A42534142461A42D6
:101C700004D0002D07D04D48FFF7FEFA23684246F6
:101C80009A51FFF744FB4A48FFF7F6FAF6E7A4003B
:101C90003C19B60023689B595A42534142461A42A6
:101CA00004D0002D07D04348FFF7E6FA23684246E8
:101CB0009A51FFF72CFB4048FFF7DEFAF6E7A40045
:101CC0003C19B60023689B595A42534142461A4276
:101CD00004D0002D07D03948FFF7CEFA23684246DA
:101CE0009A51FFF714FB3648FFF7C6FAF6E7A4004F
:101CF0003C19B60023689B595A42534142461A4246
:101D000004D0002D07D02F48FFF7B6FA23684246CB
:101D10009A51FFF7FCFA2C48FFF7AEFAF6E7A40059
:101D20003C19B60023689B595A42534142461A4215
:101D300004D0002D07D02548FFF79EFA23684246BD
:101D40009A51FFF7E4FA2248FFF796FAF6E7C04601
:101D5000EC280008F0280008F4280008F8280008FB
:101D6000FC280008002900080429000808290008A8
:101D70000C29000810290008142900081829000857
:101D80001C29000820290008242900082829000807
:101D90002C290008302900083429000838290008B7
:101DA000582700083C290008402900084429000859
:101DB000482900084C290008502900085429000827
:101DC000582900085C2900086029000864290008D7
:101DD00068290008A4003C19B60023689B595A42A0
:101DE000534142461A4204D0002D07D06948FFF7FC
:101DF00043FA236842469A51FFF789FA6648FFF78B
:101E00003BFAF6E7A4003C19B60023689B595A42F6
:101E1000534142461A4205D04B46002B07D05F483B
:101E2000FFF72AFA236842469A51FFF770FA5C4896
:101E3000FFF722FAF6E7A4003C19B60023689B5985
:101E40005A42534142461A4205D04B46002B07D016
:101E50005248FFF711FA236842469A51FFF757FAA2
:101E60004F48FFF709FAF6E7A4003C19B6002368CB
:101E70009B595A42534142461A4204D12368424672
:101E80009A51FFF744FAE520FFF7F6F9F6E7A400C8
:101E9000E359B60042469A51FFF739FA331F092B2E
:101EA00001D9FFF734FA9B003E4AD3589F46A4005D
:101EB0003C19B60023689B595A42534142461A4284
:101EC00004D1236842469A51FFF721FA3648FFF7BA
:101ED000D3F9F6E7A4003C19B60023689B595A428F
:101EE000534142461A4204D1236842469A51FFF7B1
:101EF0000EFA2D48FFF7C0F9F6E7A4003C19B6002A
:101F000023689B595A42534142461A4204D12368DE
:101F100042469A51FFF7FBF92348FFF7ADF9F6E780
:101F2000A4003C19B60023689B595A4253414246CB
:101F30001A4204D1236842469A51FFF7E8F9E62095
:101F4000FFF79AF9F6E7A4003C19B60023689B59FD
:101F50005A42534142461A4204D1236842469A519A
:101F6000FFF7D5F9E720FFF787F9F6E7A4003C195A
:101F7000B60023689B595A42534142461A4204D143
:101F8000236842469A51FFF7C2F9E820FFF774F937
:101F9000F6E7C0466C290008682900087029000887
:101FA000742900088827000878290008F0B583B054
:101FB0000190002644E0002280218848FEF783FA41
:101FC000A024E40520212000FEF776FA0300320069
:101FD0000021019D2800FFF75FF910212000FEF786
:101FE0006BFA0300320001212800FFF755F90821A0
:101FF0002000FEF761FA0300320002212800FFF7FB
:102000004BF904212000FEF757FA030032000321A8
:102010002800FFF741F902212000FEF74DFA0300E6
:10202000320004212800FFF737F901212000FEF7D4
:1020300043FA0300320005212800FFF72DF901368D
:102040000F2E00DDC7E0654C012280212000FEF745
:102050003AFA012240212000FEF735FA0122102130
:102060002000FEF730FA012208212000FEF72BFAAB
:102070008021A025ED05012249012800FEF723FA61
:1020800080273F01012239002800FEF71CFA802139
:102090000122C9002800FEF716FA802101228900DA
:1020A0002800FEF710FA80210122C9012000FEF766
:1020B0000AFA8021012289012000FEF704FA012298
:1020C00039002000FEF7FFF9012204212000FEF76D
:1020D000FAF9012202212000FEF7F5F9012201217F
:1020E0002000FEF7F0F9012280212800FEF7EBF92D
:1020F000012240212800FEF7E6F90F2E00D95FE704
:10210000B300374AD3589F46002240213348FEF798
:10211000DAF955E7002210213048FEF7D4F94FE7ED
:10212000002208212D48FEF7CEF949E78021A020A2
:1021300000224901C005FEF7C6F941E78021A02031
:1021400000220901C005FEF7BEF939E78021A02071
:102150000022C900C005FEF7B6F931E78021A020B2
:1021600000228900C005FEF7AEF929E78021002290
:10217000C9011A48FEF7A7F922E780210022890148
:102180001648FEF7A0F91BE7802100220901134839
:10219000FEF799F914E7002204211048FEF793F99D
:1021A0000EE7002202210D48FEF78DF908E7002214
:1021B00001210A48FEF787F902E7A02000228021CA
:1021C000C005FEF780F9FBE6A02000224021C005F3
:1021D000FEF779F9F4E603B0F0BDC0460004005004
:1021E000B0270008F0B5002708E0BC0025589C0087
:1021F00001262E5101339342F7DB01378F4201DA7A
:102200000023F8E7F0BD0000F0B589B014220021EA
:1022100003A800F0B9F91E4BDA6A01252A43DA62F5
:10222000DA6A2A400192019AD96A02221143D962DC
:10223000DB6A1A400292029BF626760100223100E8
:10224000A020C005FEF73FF9124F002239001248C6
:10225000FEF739F93F23039300240494059403A95E
:10226000A020C005FEF762F8039604950594069435
:1022700003A9A020C005FEF759F80397049505941B
:10228000069403A90448FEF751F809B0F0BDC04612
:1022900000100240DF7800000004005010B50D4C23
:1022A0000D4B23600D4B63600023A3600122E260AD
:1022B00023616361A361E36123622000FEF7E4F917
:1022C00000212000FEF7FCFA00212000FEF724FB8D
:1022D00010BDC046980000200054004082665000A7
:1022E00010B59AB0342200210DA800F04DF9142247
:1022F000002108A800F048F91C22002101A800F0E4
:1023000043F915490B68154A1A4080231B011343F2
:102310000B6002230D93012210920F32119216933B
:102320000024179418948023DB0319930DA8FEF75B
:1023300075FB0F2308930C3B09930A940B940C94A0
:10234000012108A8FEF7EAFD08230193069401A8DD
:10235000FEF7B8FE1AB010BD00700040FFE7FFFFA7
:1023600070B5182000F006F90400002506E0AE0064
:10237000A619402000F0FEF830600135052DF6DD8D
:10238000102206212000FFF72DFFFDF761FFFFF768
:10239000A7FFFFF739FFFFF781FF2000FFF706FED9
:1023A000FBE70000054B5A6B01210A435A63996B06
:1023B000802252050A439A637047C04600100240CB
:1023C00010B586B004001422002101A800F0DCF84A
:1023D0002268114B9A4201D006B010BD0F4CE26A40
:1023E00002231A43E262E26A13400093009BC02377
:1023F0009B00019312230293113B03930233049336
:102400000133059301A90648FDF790FFA26B8023D5
:102410009B031343A363DFE7005400400010024016
:10242000000400507047FEE77047704710B5FDF795
:1024300023FF10BD10B503000B4A1268002A08D014
:10244000094A1068C3186A46934206D8064A1360C0
:1024500010BD054A05491160F2E700F061F80C2350
:10246000036001204042F3E784000020E8000020E0
:10247000104B1968802252000A431A60DA680E492C
:102480000A40DA601A680D490A401A609A68012108
:102490008A439A601A680A490A401A60DA68094948
:1024A0000A40DA6000221A61074B802212059A6006
:1024B0007047C046001002400C40FF88F6FFF6FE51
:1024C000FFFFFBFFFFFF02FF00ED00E00D48854628
:1024D000002103E00C4B5B58435004310B480C4B7C
:1024E00042189A42F6D30B4A02E0002313600432EA
:1024F000094B9A42F9D3FFF7BBFF00F017F8FFF73B
:102500002FFFFEE7002000208429000800000020A3
:102510006800002068000020E8000020FEE70000BE
:10252000014B18687047C0460400002070B50026B3
:102530000C4D0D4C641BA410A64209D1002600F0DE
:102540009DF80A4D0A4C641BA410A64205D170BD2B
:10255000B300EB5898470136EEE7B300EB589847C5
:102560000136F2E77C2900087C2900087C29000854
:102570008029000810B5034B0100186800F00CF822
:1025800010BDC0460400002003001218934200D181
:10259000704719700133F9E7032370B5CD1C9D43D3
:1025A000083506000C2D1ED20C25A9421DD830007E
:1025B00000F062F8254A14682100002919D1244C42
:1025C0002368002B03D1300000F044F8206029007C
:1025D000300000F03FF8431C2BD10C233000336057
:1025E00000F04BF803E0002DDFDA0C23336000200D
:1025F00070BD0B685B1B19D40B2B03D90B60CC1877
:10260000256003E04B688C420DD11360300000F070
:1026100034F8200007220B30231D9043C31AE7D063
:102620005A42E250E4E763600C00EFE70C004968AF
:10263000C3E70323C41C9C43A042E1D0211A30000D
:1026400000F008F8431CDBD1C7E7C0468C0000202F
:1026500090000020002370B5064C050008002360A0
:10266000FFF7E8FE431C03D12368002B00D02B604A
:1026700070BDC046E400002070477047F8B5C04602
:10268000F8BC08BC9E467047F8B5C046F8BC08BC0C
:042690009E467047AB
:102694000213000890130008A41600083219000859
:1026A400101C00089C1E00089C130008CC13000892
:1026B400FC1300082C1400085C1400088C14000897
:1026C400BC140008EC1400081C1500084C15000884
:1026D4007C150008AC150008501600088016000888
:1026E400B2160008D61600080417000832170008AE
:1026F400601700088E170008BC170008EA170008C6
:10270400181800084618000874180008A2180008D1
:10271400D21800080E130008021900084019000816
:1027240066190008101A00083E1A00086C1A0008FE
:102734009A1A0008C81A0008F81A0008281B00088A
:10274400581B0008881B0008BA1B00080E13000859
:10275400EA1B0008201C00082E1C00085E1C000850
:102764008E1C0008BE1C0008EE1C00081E1D00087C
:10277400D41D0008041E0008361E0008681E000848
:102784008E1E0008AE1E00080E130008D41E00089A
:102794000E130008FA1E00080E1300080E1300089A
:1027A400201F0008461F00086C1F0008B61F000801
:1027B4000821000814210008202100082C21000809
:1027C4003C2100084C2100085C2100086C21000811
:1027D4007A2100088821000896210008A221000817
:1027E400AE210008BA210008C82100080304060825
:1027F4000C10182030000000000000000000000051
:102804000102030406070809000000000102030492
:102814003F0000002F0000007E0000006000000068
:1028240021000000310000004000000032000000E0
:1028340023000000330000002400000034000000E6
:1028440025000000350000005E0000003600000096
:1028540026000000370000002A00000038000000B5
:1028640028000000390000002900000030000000AA
:102874005F0000002D0000002B000000510000004C
:1028840071000000570000007700000045000000C0
:1028940065000000520000007200000054000000B7
:1028A4007400000059000000790000005500000089
:1028B4007500000049000000690000004F0000009E
:1028C4006F00000050000000700000007B0000005A
:1028D4005B0000007D0000005D0000007C00000043
:1028E400410000006100000053000000730000007C
:1028F4004400000064000000460000006600000080
:102904004700000067000000480000006800000065
:102914004A0000006A0000004B0000006B00000049
:102924004C0000006C0000003A0000003B00000076
:1029340022000000270000005A0000007A00000076
:10294400580000007800000043000000630000000D
:102954005600000076000000420000006200000003
:102964004E0000006E0000004D0000003C0000001E
:082974002C000000200000000F
:04297C00E900000866
:04298000C10000088A
:1029840000002000080000200000000000000000FB
:102994000000000000000000000000000000000033
:1029A4000000000000000000000000000000000023
:1029B4000000000000000000000000000000000013
:1029C4000000000000000000000000000000000003
:1029D40000000000000000000000000000000000F3
:0829E4000000000000000000EB
:04000005080024CDFE
:00000001FF
